{
  "fileName": "DarkForestCore.sol",
  "contractName": "DarkForestCore",
  "source": "// SPDX-License-Identifier: UNLICENSED\npragma solidity ^0.6.9;\npragma experimental ABIEncoderV2;\n\n// Import base Initializable contract\nimport \"@openzeppelin/contracts-ethereum-package/contracts/Initializable.sol\";\nimport \"@openzeppelin/contracts-ethereum-package/contracts/math/SafeMath.sol\";\nimport \"@openzeppelin/contracts-ethereum-package/contracts/math/Math.sol\";\nimport \"./Verifier.sol\";\nimport \"./DarkForestStorageV1.sol\";\nimport \"./DarkForestUtils.sol\";\nimport \"./DarkForestPlanet.sol\";\nimport \"./DarkForestLazyUpdate.sol\";\nimport \"./DarkForestInitialize.sol\";\n\n// .______       _______     ___       _______  .___  ___.  _______\n// |   _  \\     |   ____|   /   \\     |       \\ |   \\/   | |   ____|\n// |  |_)  |    |  |__     /  ^  \\    |  .--.  ||  \\  /  | |  |__\n// |      /     |   __|   /  /_\\  \\   |  |  |  ||  |\\/|  | |   __|\n// |  |\\  \\----.|  |____ /  _____  \\  |  '--'  ||  |  |  | |  |____\n// | _| `._____||_______/__/     \\__\\ |_______/ |__|  |__| |_______|\n//\n// READ THIS FIRST BEFORE EDITING ANYTHING IN THIS FILE:\n// https://docs.openzeppelin.com/learn/upgrading-smart-contracts#limitations-of-contract-upgrades\n//\n// DO NOT ADD ANY STORAGE VARIABLES IN THIS FILE\n// IT SHOULD BELONG AT STORAGE CONTRACTS\n// ADDING STORAGE VARIABLES HERE WI LL BLOCK ANY STORAGE CONTRACTS FROM EVER\n// ADDING THEIR OWN VARIABLES EVER AGAIN.\n\ncontract DarkForestCore is Initializable, DarkForestStorageV1 {\n    using ABDKMath64x64 for *;\n    using SafeMath for *;\n    using Math for uint256;\n\n    event PlayerInitialized(address player, uint256 loc);\n    event ArrivalQueued(uint256 arrivalId);\n    event PlanetUpgraded(uint256 loc);\n    event PlanetDelegated(uint256 loc, address player);\n    event PlanetUndelegated(uint256 loc, address player);\n    event BoughtHat(uint256 loc);\n\n    function initialize(\n        address _adminAddress,\n        address payable _whitelistAddress,\n        bool _disableZKCheck\n    ) public initializer {\n        adminAddress = _adminAddress;\n        whitelist = Whitelist(_whitelistAddress);\n\n        paused = false;\n\n        DISABLE_ZK_CHECK = _disableZKCheck;\n\n        gameEndTimestamp = 1697464000;\n        target4RadiusConstant = 50;\n        target5RadiusConstant = 12;\n\n        planetLevelThresholds = [\n            16777216,\n            4194256,\n            1048516,\n            262081,\n            65472,\n            16320,\n            4032,\n            960\n        ];\n\n        DarkForestInitialize.initializeDefaults(planetDefaultStats);\n        DarkForestInitialize.initializeUpgrades(upgrades);\n\n        initializedPlanetCountByLevel = [0, 0, 0, 0, 0, 0, 0, 0];\n        for (uint256 i = 0; i < planetLevelThresholds.length; i += 1) {\n            cumulativeRarities.push(\n                (2**24 / planetLevelThresholds[i]) * PLANET_RARITY\n            );\n        }\n\n        _updateWorldRadius();\n    }\n\n    //////////////////////\n    /// ACCESS CONTROL ///\n    //////////////////////\n    modifier onlyAdmin() {\n        require(msg.sender == adminAddress, \"Sender is not a game master\");\n        _;\n    }\n\n    modifier onlyWhitelisted() {\n        require(\n            whitelist.isWhitelisted(msg.sender),\n            \"Player is not whitelisted\"\n        );\n        _;\n    }\n\n    modifier notPaused() {\n        require(!paused, \"Game is paused\");\n        _;\n    }\n\n    modifier notEnded() {\n        require(block.timestamp < gameEndTimestamp, \"Game have ended\");\n        _;\n    }\n\n    function changeAdmin(address _newAdmin) public onlyAdmin {\n        require(_newAdmin != address(0), \"newOwner cannot be 0x0\");\n        adminAddress = _newAdmin;\n    }\n\n    /////////////////////////////\n    /// Administrative Engine ///\n    /////////////////////////////\n    function pause() public onlyAdmin {\n        require(!paused, \"Game is already paused\");\n        paused = true;\n    }\n\n    function unpause() public onlyAdmin {\n        require(paused, \"Game is already unpaused\");\n        paused = false;\n    }\n\n    function changeGameEndTime(uint256 _newGameEnd) public onlyAdmin {\n        gameEndTimestamp = _newGameEnd;\n    }\n\n    function changeTarget4RadiusConstant(uint256 _newConstant)\n        public\n        onlyAdmin\n    {\n        target4RadiusConstant = _newConstant;\n    }\n\n    function changeTarget5RadiusConstant(uint256 _newConstant)\n        public\n        onlyAdmin\n    {\n        target5RadiusConstant = _newConstant;\n    }\n\n    function withdraw() public onlyAdmin {\n        msg.sender.transfer(address(this).balance);\n    }\n\n    //////////////\n    /// Helper ///\n    //////////////\n\n    // Public helper getters\n    function getNPlanets() public view returns (uint256) {\n        return planetIds.length;\n    }\n\n    function bulkGetPlanetIds(uint256 startIdx, uint256 endIdx)\n        public\n        view\n        returns (uint256[] memory ret)\n    {\n        // return slice of planetIds array from startIdx through endIdx - 1\n        ret = new uint256[](endIdx - startIdx);\n        for (uint256 i = startIdx; i < endIdx; i++) {\n            ret[i - startIdx] = planetIds[i];\n        }\n    }\n\n    function bulkGetPlanets(uint256 startIdx, uint256 endIdx)\n        public\n        view\n        returns (DarkForestTypes.Planet[] memory ret)\n    {\n        // return array of planets corresponding to planetIds[startIdx] through planetIds[endIdx - 1]\n        ret = new DarkForestTypes.Planet[](endIdx - startIdx);\n        for (uint256 i = startIdx; i < endIdx; i++) {\n            ret[i - startIdx] = planets[planetIds[i]];\n        }\n    }\n\n    function bulkGetPlanetsExtendedInfo(uint256 startIdx, uint256 endIdx)\n        public\n        view\n        returns (DarkForestTypes.PlanetExtendedInfo[] memory ret)\n    {\n        // return array of planets corresponding to planetIds[startIdx] through planetIds[endIdx - 1]\n        ret = new DarkForestTypes.PlanetExtendedInfo[](endIdx - startIdx);\n        for (uint256 i = startIdx; i < endIdx; i++) {\n            ret[i - startIdx] = planetsExtendedInfo[planetIds[i]];\n        }\n    }\n\n    function getNPlayers() public view returns (uint256) {\n        return playerIds.length;\n    }\n\n    function bulkGetPlayers(uint256 startIdx, uint256 endIdx)\n        public\n        view\n        returns (address[] memory ret)\n    {\n        // return slice of players array from startIdx through endIdx - 1\n        ret = new address[](endIdx - startIdx);\n        for (uint256 i = startIdx; i < endIdx; i++) {\n            ret[i - startIdx] = playerIds[i];\n        }\n    }\n\n    function getPlanetLevelThresholds() public view returns (uint256[] memory) {\n        return planetLevelThresholds;\n    }\n\n    function getPlanetCumulativeRarities()\n        public\n        view\n        returns (uint256[] memory)\n    {\n        return cumulativeRarities;\n    }\n\n    function getPlanetArrivals(uint256 _location)\n        public\n        view\n        returns (DarkForestTypes.ArrivalData[] memory ret)\n    {\n        uint256 arrivalCount = 0;\n        for (uint256 i = 0; i < planetEvents[_location].length; i += 1) {\n            if (\n                planetEvents[_location][i].eventType ==\n                DarkForestTypes.PlanetEventType.ARRIVAL\n            ) {\n                arrivalCount += 1;\n            }\n        }\n        ret = new DarkForestTypes.ArrivalData[](arrivalCount);\n        uint256 count = 0;\n        for (uint256 i = 0; i < planetEvents[_location].length; i += 1) {\n            if (\n                planetEvents[_location][i].eventType ==\n                DarkForestTypes.PlanetEventType.ARRIVAL\n            ) {\n                ret[count] = planetArrivals[planetEvents[_location][i].id];\n                count++;\n            }\n        }\n    }\n\n    function bulkGetPlanetArrivals(uint256 startIdx, uint256 endIdx)\n        public\n        view\n        returns (DarkForestTypes.ArrivalData[][] memory)\n    {\n        // return array of planets corresponding to planetIds[startIdx] through planetIds[endIdx - 1]\n\n\n            DarkForestTypes.ArrivalData[][] memory ret\n         = new DarkForestTypes.ArrivalData[][](endIdx - startIdx);\n        for (uint256 i = startIdx; i < endIdx; i++) {\n            ret[i - startIdx] = getPlanetArrivals(planetIds[i]);\n        }\n        return ret;\n    }\n\n    function getDefaultStats()\n        public\n        view\n        returns (DarkForestTypes.PlanetDefaultStats[] memory)\n    {\n\n            DarkForestTypes.PlanetDefaultStats[] memory ret\n         = new DarkForestTypes.PlanetDefaultStats[](\n            planetLevelThresholds.length\n        );\n        for (uint256 i = 0; i < planetLevelThresholds.length; i += 1) {\n            ret[i] = planetDefaultStats[i];\n        }\n        return ret;\n    }\n\n    function getPlanetCounts() public view returns (uint256[] memory) {\n        return initializedPlanetCountByLevel;\n    }\n\n    function getUpgrades()\n        public\n        view\n        returns (DarkForestTypes.Upgrade[4][3] memory)\n    {\n        return upgrades;\n    }\n\n    function isDelegated(uint256 _location, address _player)\n        public\n        view\n        returns (bool)\n    {\n        return\n            DarkForestUtils.isDelegated(\n                planetsExtendedInfo,\n                _location,\n                _player\n            );\n    }\n\n    // private utilities\n\n    function _locationIdValid(uint256 _loc) public pure returns (bool) {\n        return (_loc <\n            (21888242871839275222246405745257275088548364400416034343698204186575808495617 /\n                PLANET_RARITY));\n    }\n\n    // Private helpers that modify state\n    function _updateWorldRadius() private {\n        worldRadius = DarkForestUtils._getRadius(\n            initializedPlanetCountByLevel,\n            cumulativeRarities,\n            playerIds.length,\n            target4RadiusConstant,\n            target5RadiusConstant\n        );\n    }\n\n    function _initializePlanet(\n        uint256 _location,\n        uint256 _perlin,\n        bool _isHomePlanet\n    ) private {\n        require(_locationIdValid(_location), \"Not a valid planet location\");\n\n        (\n            uint256 _level,\n            DarkForestTypes.PlanetResource _resource\n        ) = DarkForestUtils._getPlanetLevelAndResource(\n            _location,\n            _perlin,\n            PERLIN_THRESHOLD_1,\n            PERLIN_THRESHOLD_2,\n            SILVER_RARITY_1,\n            SILVER_RARITY_2,\n            SILVER_RARITY_3,\n            planetLevelThresholds,\n            planetDefaultStats\n        );\n\n        if (_isHomePlanet) {\n            require(_level == 0, \"Can only initialize on planet level 0\");\n        }\n\n        DarkForestPlanet.initializePlanet(\n            planets[_location],\n            planetsExtendedInfo[_location],\n            planetDefaultStats[_level],\n            _perlin,\n            TIME_FACTOR_HUNDREDTHS,\n            PERLIN_THRESHOLD_1,\n            PERLIN_THRESHOLD_2,\n            _resource,\n            _level,\n            _location\n        );\n        planetIds.push(_location);\n        initializedPlanetCountByLevel[_level] += 1;\n    }\n\n    //////////////////////\n    /// Game Mechanics ///\n    //////////////////////\n\n    function refreshPlanet(uint256 _location)\n        public\n        onlyWhitelisted\n        notPaused\n        notEnded\n    {\n        DarkForestPlanet.refreshPlanet(\n            _location,\n            planets,\n            planetsExtendedInfo,\n            planetEvents,\n            planetArrivals\n        );\n    }\n\n    function initializePlayer(\n        uint256[2] memory _a,\n        uint256[2][2] memory _b,\n        uint256[2] memory _c,\n        uint256[3] memory _input\n    ) public onlyWhitelisted notPaused notEnded returns (uint256) {\n        if (!DISABLE_ZK_CHECK) {\n            require(\n                Verifier.verifyInitProof(_a, _b, _c, _input),\n                \"Failed init proof check\"\n            );\n        }\n\n        uint256 _location = _input[0];\n        uint256 _perlin = _input[1];\n        uint256 _radius = _input[2];\n\n        require(\n            !isPlayerInitialized[msg.sender],\n            \"Player is already initialized\"\n        );\n        require(\n            !planetsExtendedInfo[_location].isInitialized,\n            \"Planet is already initialized\"\n        );\n        require(\n            _radius <= worldRadius,\n            \"Init radius is bigger than the current world radius\"\n        );\n        require(\n            _perlin < PERLIN_THRESHOLD_1,\n            \"Init not allowed in perlin value greater than or equal to the threshold\"\n        );\n\n        // Initialize player data\n        isPlayerInitialized[msg.sender] = true;\n        playerIds.push(msg.sender);\n\n        // Initialize planet information\n        _initializePlanet(_location, _perlin, true);\n        planets[_location].owner = msg.sender;\n        planets[_location].population = 50000;\n        _updateWorldRadius();\n        emit PlayerInitialized(msg.sender, _location);\n        return _location;\n    }\n\n    function move(\n        uint256[2] memory _a,\n        uint256[2][2] memory _b,\n        uint256[2] memory _c,\n        uint256[7] memory _input\n    ) public notPaused notEnded returns (uint256) {\n        uint256 _oldLoc = _input[0];\n        uint256 _newLoc = _input[1];\n        uint256 _newPerlin = _input[2];\n        uint256 _newRadius = _input[3];\n        uint256 _maxDist = _input[4];\n        uint256 _popMoved = _input[5];\n        uint256 _silverMoved = _input[6];\n\n        if (!DISABLE_ZK_CHECK) {\n            uint256[5] memory _proofInput = [\n                _oldLoc,\n                _newLoc,\n                _newPerlin,\n                _newRadius,\n                _maxDist\n            ];\n            require(\n                Verifier.verifyMoveProof(_a, _b, _c, _proofInput),\n                \"Failed move proof check\"\n            );\n        }\n\n        // check radius\n        require(_newRadius <= worldRadius, \"Attempting to move out of bounds\");\n\n        // Only perform if the toPlanet have never initialized previously\n        if (!planetsExtendedInfo[_newLoc].isInitialized) {\n            _initializePlanet(_newLoc, _newPerlin, false);\n        } else {\n            // need to do this so people can't deny service to their own planets with gas limit\n            refreshPlanet(_newLoc);\n            require(planetEvents[_newLoc].length < 7, \"Planet is rate-limited\");\n        }\n\n        // Refresh fromPlanet first before doing any action on it\n        refreshPlanet(_oldLoc);\n        DarkForestPlanet.move(\n            _oldLoc,\n            _newLoc,\n            _maxDist,\n            _popMoved,\n            _silverMoved,\n            planetEventsCount,\n            planets,\n            planetsExtendedInfo,\n            planetEvents,\n            planetArrivals\n        );\n\n        planetEventsCount++;\n\n        _updateWorldRadius();\n        emit ArrivalQueued(planetEventsCount - 1);\n        return (planetEventsCount - 1);\n    }\n\n    function upgradePlanet(uint256 _location, uint256 _branch)\n        public\n        notPaused\n        notEnded\n        returns (uint256, uint256)\n    {\n        // _branch specifies which of the three upgrade branches player is leveling up\n        // 0 improves silver production and capacity\n        // 1 improves population\n        // 2 improves range\n        refreshPlanet(_location);\n        DarkForestPlanet.upgradePlanet(\n            _location,\n            _branch,\n            planets,\n            planetsExtendedInfo,\n            planetDefaultStats,\n            upgrades\n        );\n        emit PlanetUpgraded(_location);\n        return (_location, _branch);\n    }\n\n    function delegatePlanet(uint256 _location, address _player)\n        public\n        notPaused\n        notEnded\n    {\n        require(\n            planetsExtendedInfo[_location].isInitialized == true,\n            \"Planet is not initialized\"\n        );\n        refreshPlanet(_location);\n        require(\n            planets[_location].owner == msg.sender,\n            \"Only owner can delegate planet\"\n        );\n        require(!isDelegated(_location, _player), \"Planet already delegated\");\n        planetsExtendedInfo[_location].delegatedPlayers.push(_player);\n\n        emit PlanetDelegated(_location, _player);\n    }\n\n    function undelegatePlanet(uint256 _location, address _player)\n        public\n        notPaused\n        notEnded\n    {\n        require(\n            planetsExtendedInfo[_location].isInitialized == true,\n            \"Planet is not initialized\"\n        );\n        refreshPlanet(_location);\n        require(\n            planets[_location].owner == msg.sender,\n            \"Only owner can delegate planet\"\n        );\n\n        require(isDelegated(_location, _player), \"Planet is not delegated\");\n\n        for (\n            uint256 i = 0;\n            i < planetsExtendedInfo[_location].delegatedPlayers.length;\n            i++\n        ) {\n            if (_player == planetsExtendedInfo[_location].delegatedPlayers[i]) {\n                planetsExtendedInfo[_location]\n                    .delegatedPlayers[i] = planetsExtendedInfo[_location]\n                    .delegatedPlayers[planetsExtendedInfo[_location]\n                    .delegatedPlayers\n                    .length - 1];\n\n                planetsExtendedInfo[_location].delegatedPlayers.pop();\n                emit PlanetUndelegated(_location, _player);\n            }\n        }\n    }\n\n    function buyHat(uint256 _location)\n        public\n        payable\n    {\n        require(\n            planetsExtendedInfo[_location].isInitialized == true,\n            \"Planet is not initialized\"\n        );\n\n        refreshPlanet(_location);\n\n        require(\n            planets[_location].owner == msg.sender,\n            \"Only owner can buy hat for planet\"\n        );\n\n        uint256 cost = (1 << planetsExtendedInfo[_location].hatLevel) * 1 ether;\n\n        require(msg.value >= cost, \"Insufficient value sent\");\n\n        planetsExtendedInfo[_location].hatLevel += 1;\n        emit BoughtHat(_location);\n    }\n}\n",
  "sourcePath": "contracts/DarkForestCore.sol",
  "abi": [
    {
      "anonymous": false,
      "inputs": [
        {
          "indexed": false,
          "internalType": "uint256",
          "name": "arrivalId",
          "type": "uint256"
        }
      ],
      "name": "ArrivalQueued",
      "type": "event"
    },
    {
      "anonymous": false,
      "inputs": [
        {
          "indexed": false,
          "internalType": "uint256",
          "name": "loc",
          "type": "uint256"
        }
      ],
      "name": "BoughtHat",
      "type": "event"
    },
    {
      "anonymous": false,
      "inputs": [
        {
          "indexed": false,
          "internalType": "uint256",
          "name": "loc",
          "type": "uint256"
        },
        {
          "indexed": false,
          "internalType": "address",
          "name": "player",
          "type": "address"
        }
      ],
      "name": "PlanetDelegated",
      "type": "event"
    },
    {
      "anonymous": false,
      "inputs": [
        {
          "indexed": false,
          "internalType": "uint256",
          "name": "loc",
          "type": "uint256"
        },
        {
          "indexed": false,
          "internalType": "address",
          "name": "player",
          "type": "address"
        }
      ],
      "name": "PlanetUndelegated",
      "type": "event"
    },
    {
      "anonymous": false,
      "inputs": [
        {
          "indexed": false,
          "internalType": "uint256",
          "name": "loc",
          "type": "uint256"
        }
      ],
      "name": "PlanetUpgraded",
      "type": "event"
    },
    {
      "anonymous": false,
      "inputs": [
        {
          "indexed": false,
          "internalType": "address",
          "name": "player",
          "type": "address"
        },
        {
          "indexed": false,
          "internalType": "uint256",
          "name": "loc",
          "type": "uint256"
        }
      ],
      "name": "PlayerInitialized",
      "type": "event"
    },
    {
      "inputs": [],
      "name": "DISABLE_ZK_CHECK",
      "outputs": [
        {
          "internalType": "bool",
          "name": "",
          "type": "bool"
        }
      ],
      "stateMutability": "view",
      "type": "function"
    },
    {
      "inputs": [],
      "name": "PERLIN_THRESHOLD_1",
      "outputs": [
        {
          "internalType": "uint256",
          "name": "",
          "type": "uint256"
        }
      ],
      "stateMutability": "view",
      "type": "function"
    },
    {
      "inputs": [],
      "name": "PERLIN_THRESHOLD_2",
      "outputs": [
        {
          "internalType": "uint256",
          "name": "",
          "type": "uint256"
        }
      ],
      "stateMutability": "view",
      "type": "function"
    },
    {
      "inputs": [],
      "name": "PLANET_RARITY",
      "outputs": [
        {
          "internalType": "uint256",
          "name": "",
          "type": "uint256"
        }
      ],
      "stateMutability": "view",
      "type": "function"
    },
    {
      "inputs": [],
      "name": "SILVER_RARITY_1",
      "outputs": [
        {
          "internalType": "uint256",
          "name": "",
          "type": "uint256"
        }
      ],
      "stateMutability": "view",
      "type": "function"
    },
    {
      "inputs": [],
      "name": "SILVER_RARITY_2",
      "outputs": [
        {
          "internalType": "uint256",
          "name": "",
          "type": "uint256"
        }
      ],
      "stateMutability": "view",
      "type": "function"
    },
    {
      "inputs": [],
      "name": "SILVER_RARITY_3",
      "outputs": [
        {
          "internalType": "uint256",
          "name": "",
          "type": "uint256"
        }
      ],
      "stateMutability": "view",
      "type": "function"
    },
    {
      "inputs": [],
      "name": "TIME_FACTOR_HUNDREDTHS",
      "outputs": [
        {
          "internalType": "uint256",
          "name": "",
          "type": "uint256"
        }
      ],
      "stateMutability": "view",
      "type": "function"
    },
    {
      "inputs": [
        {
          "internalType": "uint256",
          "name": "_loc",
          "type": "uint256"
        }
      ],
      "name": "_locationIdValid",
      "outputs": [
        {
          "internalType": "bool",
          "name": "",
          "type": "bool"
        }
      ],
      "stateMutability": "pure",
      "type": "function"
    },
    {
      "inputs": [],
      "name": "adminAddress",
      "outputs": [
        {
          "internalType": "address",
          "name": "",
          "type": "address"
        }
      ],
      "stateMutability": "view",
      "type": "function"
    },
    {
      "inputs": [
        {
          "internalType": "uint256",
          "name": "startIdx",
          "type": "uint256"
        },
        {
          "internalType": "uint256",
          "name": "endIdx",
          "type": "uint256"
        }
      ],
      "name": "bulkGetPlanetArrivals",
      "outputs": [
        {
          "components": [
            {
              "internalType": "uint256",
              "name": "id",
              "type": "uint256"
            },
            {
              "internalType": "address",
              "name": "player",
              "type": "address"
            },
            {
              "internalType": "uint256",
              "name": "fromPlanet",
              "type": "uint256"
            },
            {
              "internalType": "uint256",
              "name": "toPlanet",
              "type": "uint256"
            },
            {
              "internalType": "uint256",
              "name": "popArriving",
              "type": "uint256"
            },
            {
              "internalType": "uint256",
              "name": "silverMoved",
              "type": "uint256"
            },
            {
              "internalType": "uint256",
              "name": "departureTime",
              "type": "uint256"
            },
            {
              "internalType": "uint256",
              "name": "arrivalTime",
              "type": "uint256"
            }
          ],
          "internalType": "struct DarkForestTypes.ArrivalData[][]",
          "name": "",
          "type": "tuple[][]"
        }
      ],
      "stateMutability": "view",
      "type": "function"
    },
    {
      "inputs": [
        {
          "internalType": "uint256",
          "name": "startIdx",
          "type": "uint256"
        },
        {
          "internalType": "uint256",
          "name": "endIdx",
          "type": "uint256"
        }
      ],
      "name": "bulkGetPlanetIds",
      "outputs": [
        {
          "internalType": "uint256[]",
          "name": "ret",
          "type": "uint256[]"
        }
      ],
      "stateMutability": "view",
      "type": "function"
    },
    {
      "inputs": [
        {
          "internalType": "uint256",
          "name": "startIdx",
          "type": "uint256"
        },
        {
          "internalType": "uint256",
          "name": "endIdx",
          "type": "uint256"
        }
      ],
      "name": "bulkGetPlanets",
      "outputs": [
        {
          "components": [
            {
              "internalType": "address",
              "name": "owner",
              "type": "address"
            },
            {
              "internalType": "uint256",
              "name": "range",
              "type": "uint256"
            },
            {
              "internalType": "uint256",
              "name": "speed",
              "type": "uint256"
            },
            {
              "internalType": "uint256",
              "name": "defense",
              "type": "uint256"
            },
            {
              "internalType": "uint256",
              "name": "population",
              "type": "uint256"
            },
            {
              "internalType": "uint256",
              "name": "populationCap",
              "type": "uint256"
            },
            {
              "internalType": "uint256",
              "name": "populationGrowth",
              "type": "uint256"
            },
            {
              "internalType": "enum DarkForestTypes.PlanetResource",
              "name": "planetResource",
              "type": "uint8"
            },
            {
              "internalType": "uint256",
              "name": "silverCap",
              "type": "uint256"
            },
            {
              "internalType": "uint256",
              "name": "silverGrowth",
              "type": "uint256"
            },
            {
              "internalType": "uint256",
              "name": "silver",
              "type": "uint256"
            },
            {
              "internalType": "uint256",
              "name": "planetLevel",
              "type": "uint256"
            }
          ],
          "internalType": "struct DarkForestTypes.Planet[]",
          "name": "ret",
          "type": "tuple[]"
        }
      ],
      "stateMutability": "view",
      "type": "function"
    },
    {
      "inputs": [
        {
          "internalType": "uint256",
          "name": "startIdx",
          "type": "uint256"
        },
        {
          "internalType": "uint256",
          "name": "endIdx",
          "type": "uint256"
        }
      ],
      "name": "bulkGetPlanetsExtendedInfo",
      "outputs": [
        {
          "components": [
            {
              "internalType": "bool",
              "name": "isInitialized",
              "type": "bool"
            },
            {
              "internalType": "uint256",
              "name": "createdAt",
              "type": "uint256"
            },
            {
              "internalType": "uint256",
              "name": "lastUpdated",
              "type": "uint256"
            },
            {
              "internalType": "uint256",
              "name": "perlin",
              "type": "uint256"
            },
            {
              "internalType": "enum DarkForestTypes.SpaceType",
              "name": "spaceType",
              "type": "uint8"
            },
            {
              "internalType": "uint256",
              "name": "upgradeState0",
              "type": "uint256"
            },
            {
              "internalType": "uint256",
              "name": "upgradeState1",
              "type": "uint256"
            },
            {
              "internalType": "uint256",
              "name": "upgradeState2",
              "type": "uint256"
            },
            {
              "internalType": "uint256",
              "name": "hatLevel",
              "type": "uint256"
            },
            {
              "internalType": "address[]",
              "name": "delegatedPlayers",
              "type": "address[]"
            }
          ],
          "internalType": "struct DarkForestTypes.PlanetExtendedInfo[]",
          "name": "ret",
          "type": "tuple[]"
        }
      ],
      "stateMutability": "view",
      "type": "function"
    },
    {
      "inputs": [
        {
          "internalType": "uint256",
          "name": "startIdx",
          "type": "uint256"
        },
        {
          "internalType": "uint256",
          "name": "endIdx",
          "type": "uint256"
        }
      ],
      "name": "bulkGetPlayers",
      "outputs": [
        {
          "internalType": "address[]",
          "name": "ret",
          "type": "address[]"
        }
      ],
      "stateMutability": "view",
      "type": "function"
    },
    {
      "inputs": [
        {
          "internalType": "uint256",
          "name": "_location",
          "type": "uint256"
        }
      ],
      "name": "buyHat",
      "outputs": [],
      "stateMutability": "payable",
      "type": "function"
    },
    {
      "inputs": [
        {
          "internalType": "address",
          "name": "_newAdmin",
          "type": "address"
        }
      ],
      "name": "changeAdmin",
      "outputs": [],
      "stateMutability": "nonpayable",
      "type": "function"
    },
    {
      "inputs": [
        {
          "internalType": "uint256",
          "name": "_newGameEnd",
          "type": "uint256"
        }
      ],
      "name": "changeGameEndTime",
      "outputs": [],
      "stateMutability": "nonpayable",
      "type": "function"
    },
    {
      "inputs": [
        {
          "internalType": "uint256",
          "name": "_newConstant",
          "type": "uint256"
        }
      ],
      "name": "changeTarget4RadiusConstant",
      "outputs": [],
      "stateMutability": "nonpayable",
      "type": "function"
    },
    {
      "inputs": [
        {
          "internalType": "uint256",
          "name": "_newConstant",
          "type": "uint256"
        }
      ],
      "name": "changeTarget5RadiusConstant",
      "outputs": [],
      "stateMutability": "nonpayable",
      "type": "function"
    },
    {
      "inputs": [
        {
          "internalType": "uint256",
          "name": "",
          "type": "uint256"
        }
      ],
      "name": "cumulativeRarities",
      "outputs": [
        {
          "internalType": "uint256",
          "name": "",
          "type": "uint256"
        }
      ],
      "stateMutability": "view",
      "type": "function"
    },
    {
      "inputs": [
        {
          "internalType": "uint256",
          "name": "_location",
          "type": "uint256"
        },
        {
          "internalType": "address",
          "name": "_player",
          "type": "address"
        }
      ],
      "name": "delegatePlanet",
      "outputs": [],
      "stateMutability": "nonpayable",
      "type": "function"
    },
    {
      "inputs": [],
      "name": "getDefaultStats",
      "outputs": [
        {
          "components": [
            {
              "internalType": "string",
              "name": "label",
              "type": "string"
            },
            {
              "internalType": "uint256",
              "name": "populationCap",
              "type": "uint256"
            },
            {
              "internalType": "uint256",
              "name": "populationGrowth",
              "type": "uint256"
            },
            {
              "internalType": "uint256",
              "name": "range",
              "type": "uint256"
            },
            {
              "internalType": "uint256",
              "name": "speed",
              "type": "uint256"
            },
            {
              "internalType": "uint256",
              "name": "defense",
              "type": "uint256"
            },
            {
              "internalType": "uint256",
              "name": "silverGrowth",
              "type": "uint256"
            },
            {
              "internalType": "uint256",
              "name": "silverCap",
              "type": "uint256"
            },
            {
              "internalType": "uint256",
              "name": "barbarianPercentage",
              "type": "uint256"
            }
          ],
          "internalType": "struct DarkForestTypes.PlanetDefaultStats[]",
          "name": "",
          "type": "tuple[]"
        }
      ],
      "stateMutability": "view",
      "type": "function"
    },
    {
      "inputs": [],
      "name": "getNPlanets",
      "outputs": [
        {
          "internalType": "uint256",
          "name": "",
          "type": "uint256"
        }
      ],
      "stateMutability": "view",
      "type": "function"
    },
    {
      "inputs": [],
      "name": "getNPlayers",
      "outputs": [
        {
          "internalType": "uint256",
          "name": "",
          "type": "uint256"
        }
      ],
      "stateMutability": "view",
      "type": "function"
    },
    {
      "inputs": [
        {
          "internalType": "uint256",
          "name": "_location",
          "type": "uint256"
        }
      ],
      "name": "getPlanetArrivals",
      "outputs": [
        {
          "components": [
            {
              "internalType": "uint256",
              "name": "id",
              "type": "uint256"
            },
            {
              "internalType": "address",
              "name": "player",
              "type": "address"
            },
            {
              "internalType": "uint256",
              "name": "fromPlanet",
              "type": "uint256"
            },
            {
              "internalType": "uint256",
              "name": "toPlanet",
              "type": "uint256"
            },
            {
              "internalType": "uint256",
              "name": "popArriving",
              "type": "uint256"
            },
            {
              "internalType": "uint256",
              "name": "silverMoved",
              "type": "uint256"
            },
            {
              "internalType": "uint256",
              "name": "departureTime",
              "type": "uint256"
            },
            {
              "internalType": "uint256",
              "name": "arrivalTime",
              "type": "uint256"
            }
          ],
          "internalType": "struct DarkForestTypes.ArrivalData[]",
          "name": "ret",
          "type": "tuple[]"
        }
      ],
      "stateMutability": "view",
      "type": "function"
    },
    {
      "inputs": [],
      "name": "getPlanetCounts",
      "outputs": [
        {
          "internalType": "uint256[]",
          "name": "",
          "type": "uint256[]"
        }
      ],
      "stateMutability": "view",
      "type": "function"
    },
    {
      "inputs": [],
      "name": "getPlanetCumulativeRarities",
      "outputs": [
        {
          "internalType": "uint256[]",
          "name": "",
          "type": "uint256[]"
        }
      ],
      "stateMutability": "view",
      "type": "function"
    },
    {
      "inputs": [],
      "name": "getPlanetLevelThresholds",
      "outputs": [
        {
          "internalType": "uint256[]",
          "name": "",
          "type": "uint256[]"
        }
      ],
      "stateMutability": "view",
      "type": "function"
    },
    {
      "inputs": [],
      "name": "getUpgrades",
      "outputs": [
        {
          "components": [
            {
              "internalType": "uint256",
              "name": "popCapMultiplier",
              "type": "uint256"
            },
            {
              "internalType": "uint256",
              "name": "popGroMultiplier",
              "type": "uint256"
            },
            {
              "internalType": "uint256",
              "name": "rangeMultiplier",
              "type": "uint256"
            },
            {
              "internalType": "uint256",
              "name": "speedMultiplier",
              "type": "uint256"
            },
            {
              "internalType": "uint256",
              "name": "defMultiplier",
              "type": "uint256"
            }
          ],
          "internalType": "struct DarkForestTypes.Upgrade[4][3]",
          "name": "",
          "type": "tuple[4][3]"
        }
      ],
      "stateMutability": "view",
      "type": "function"
    },
    {
      "inputs": [
        {
          "internalType": "address",
          "name": "_adminAddress",
          "type": "address"
        },
        {
          "internalType": "address payable",
          "name": "_whitelistAddress",
          "type": "address"
        },
        {
          "internalType": "bool",
          "name": "_disableZKCheck",
          "type": "bool"
        }
      ],
      "name": "initialize",
      "outputs": [],
      "stateMutability": "nonpayable",
      "type": "function"
    },
    {
      "inputs": [
        {
          "internalType": "uint256[2]",
          "name": "_a",
          "type": "uint256[2]"
        },
        {
          "internalType": "uint256[2][2]",
          "name": "_b",
          "type": "uint256[2][2]"
        },
        {
          "internalType": "uint256[2]",
          "name": "_c",
          "type": "uint256[2]"
        },
        {
          "internalType": "uint256[3]",
          "name": "_input",
          "type": "uint256[3]"
        }
      ],
      "name": "initializePlayer",
      "outputs": [
        {
          "internalType": "uint256",
          "name": "",
          "type": "uint256"
        }
      ],
      "stateMutability": "nonpayable",
      "type": "function"
    },
    {
      "inputs": [
        {
          "internalType": "uint256",
          "name": "",
          "type": "uint256"
        }
      ],
      "name": "initializedPlanetCountByLevel",
      "outputs": [
        {
          "internalType": "uint256",
          "name": "",
          "type": "uint256"
        }
      ],
      "stateMutability": "view",
      "type": "function"
    },
    {
      "inputs": [
        {
          "internalType": "uint256",
          "name": "_location",
          "type": "uint256"
        },
        {
          "internalType": "address",
          "name": "_player",
          "type": "address"
        }
      ],
      "name": "isDelegated",
      "outputs": [
        {
          "internalType": "bool",
          "name": "",
          "type": "bool"
        }
      ],
      "stateMutability": "view",
      "type": "function"
    },
    {
      "inputs": [
        {
          "internalType": "address",
          "name": "",
          "type": "address"
        }
      ],
      "name": "isPlayerInitialized",
      "outputs": [
        {
          "internalType": "bool",
          "name": "",
          "type": "bool"
        }
      ],
      "stateMutability": "view",
      "type": "function"
    },
    {
      "inputs": [
        {
          "internalType": "uint256[2]",
          "name": "_a",
          "type": "uint256[2]"
        },
        {
          "internalType": "uint256[2][2]",
          "name": "_b",
          "type": "uint256[2][2]"
        },
        {
          "internalType": "uint256[2]",
          "name": "_c",
          "type": "uint256[2]"
        },
        {
          "internalType": "uint256[7]",
          "name": "_input",
          "type": "uint256[7]"
        }
      ],
      "name": "move",
      "outputs": [
        {
          "internalType": "uint256",
          "name": "",
          "type": "uint256"
        }
      ],
      "stateMutability": "nonpayable",
      "type": "function"
    },
    {
      "inputs": [],
      "name": "pause",
      "outputs": [],
      "stateMutability": "nonpayable",
      "type": "function"
    },
    {
      "inputs": [],
      "name": "paused",
      "outputs": [
        {
          "internalType": "bool",
          "name": "",
          "type": "bool"
        }
      ],
      "stateMutability": "view",
      "type": "function"
    },
    {
      "inputs": [
        {
          "internalType": "uint256",
          "name": "",
          "type": "uint256"
        }
      ],
      "name": "planetArrivals",
      "outputs": [
        {
          "internalType": "uint256",
          "name": "id",
          "type": "uint256"
        },
        {
          "internalType": "address",
          "name": "player",
          "type": "address"
        },
        {
          "internalType": "uint256",
          "name": "fromPlanet",
          "type": "uint256"
        },
        {
          "internalType": "uint256",
          "name": "toPlanet",
          "type": "uint256"
        },
        {
          "internalType": "uint256",
          "name": "popArriving",
          "type": "uint256"
        },
        {
          "internalType": "uint256",
          "name": "silverMoved",
          "type": "uint256"
        },
        {
          "internalType": "uint256",
          "name": "departureTime",
          "type": "uint256"
        },
        {
          "internalType": "uint256",
          "name": "arrivalTime",
          "type": "uint256"
        }
      ],
      "stateMutability": "view",
      "type": "function"
    },
    {
      "inputs": [
        {
          "internalType": "uint256",
          "name": "",
          "type": "uint256"
        }
      ],
      "name": "planetDefaultStats",
      "outputs": [
        {
          "internalType": "string",
          "name": "label",
          "type": "string"
        },
        {
          "internalType": "uint256",
          "name": "populationCap",
          "type": "uint256"
        },
        {
          "internalType": "uint256",
          "name": "populationGrowth",
          "type": "uint256"
        },
        {
          "internalType": "uint256",
          "name": "range",
          "type": "uint256"
        },
        {
          "internalType": "uint256",
          "name": "speed",
          "type": "uint256"
        },
        {
          "internalType": "uint256",
          "name": "defense",
          "type": "uint256"
        },
        {
          "internalType": "uint256",
          "name": "silverGrowth",
          "type": "uint256"
        },
        {
          "internalType": "uint256",
          "name": "silverCap",
          "type": "uint256"
        },
        {
          "internalType": "uint256",
          "name": "barbarianPercentage",
          "type": "uint256"
        }
      ],
      "stateMutability": "view",
      "type": "function"
    },
    {
      "inputs": [
        {
          "internalType": "uint256",
          "name": "",
          "type": "uint256"
        },
        {
          "internalType": "uint256",
          "name": "",
          "type": "uint256"
        }
      ],
      "name": "planetEvents",
      "outputs": [
        {
          "internalType": "uint256",
          "name": "id",
          "type": "uint256"
        },
        {
          "internalType": "enum DarkForestTypes.PlanetEventType",
          "name": "eventType",
          "type": "uint8"
        },
        {
          "internalType": "uint256",
          "name": "timeTrigger",
          "type": "uint256"
        },
        {
          "internalType": "uint256",
          "name": "timeAdded",
          "type": "uint256"
        }
      ],
      "stateMutability": "view",
      "type": "function"
    },
    {
      "inputs": [],
      "name": "planetEventsCount",
      "outputs": [
        {
          "internalType": "uint256",
          "name": "",
          "type": "uint256"
        }
      ],
      "stateMutability": "view",
      "type": "function"
    },
    {
      "inputs": [
        {
          "internalType": "uint256",
          "name": "",
          "type": "uint256"
        }
      ],
      "name": "planetIds",
      "outputs": [
        {
          "internalType": "uint256",
          "name": "",
          "type": "uint256"
        }
      ],
      "stateMutability": "view",
      "type": "function"
    },
    {
      "inputs": [
        {
          "internalType": "uint256",
          "name": "",
          "type": "uint256"
        }
      ],
      "name": "planetLevelThresholds",
      "outputs": [
        {
          "internalType": "uint256",
          "name": "",
          "type": "uint256"
        }
      ],
      "stateMutability": "view",
      "type": "function"
    },
    {
      "inputs": [
        {
          "internalType": "uint256",
          "name": "",
          "type": "uint256"
        }
      ],
      "name": "planets",
      "outputs": [
        {
          "internalType": "address",
          "name": "owner",
          "type": "address"
        },
        {
          "internalType": "uint256",
          "name": "range",
          "type": "uint256"
        },
        {
          "internalType": "uint256",
          "name": "speed",
          "type": "uint256"
        },
        {
          "internalType": "uint256",
          "name": "defense",
          "type": "uint256"
        },
        {
          "internalType": "uint256",
          "name": "population",
          "type": "uint256"
        },
        {
          "internalType": "uint256",
          "name": "populationCap",
          "type": "uint256"
        },
        {
          "internalType": "uint256",
          "name": "populationGrowth",
          "type": "uint256"
        },
        {
          "internalType": "enum DarkForestTypes.PlanetResource",
          "name": "planetResource",
          "type": "uint8"
        },
        {
          "internalType": "uint256",
          "name": "silverCap",
          "type": "uint256"
        },
        {
          "internalType": "uint256",
          "name": "silverGrowth",
          "type": "uint256"
        },
        {
          "internalType": "uint256",
          "name": "silver",
          "type": "uint256"
        },
        {
          "internalType": "uint256",
          "name": "planetLevel",
          "type": "uint256"
        }
      ],
      "stateMutability": "view",
      "type": "function"
    },
    {
      "inputs": [
        {
          "internalType": "uint256",
          "name": "",
          "type": "uint256"
        }
      ],
      "name": "planetsExtendedInfo",
      "outputs": [
        {
          "internalType": "bool",
          "name": "isInitialized",
          "type": "bool"
        },
        {
          "internalType": "uint256",
          "name": "createdAt",
          "type": "uint256"
        },
        {
          "internalType": "uint256",
          "name": "lastUpdated",
          "type": "uint256"
        },
        {
          "internalType": "uint256",
          "name": "perlin",
          "type": "uint256"
        },
        {
          "internalType": "enum DarkForestTypes.SpaceType",
          "name": "spaceType",
          "type": "uint8"
        },
        {
          "internalType": "uint256",
          "name": "upgradeState0",
          "type": "uint256"
        },
        {
          "internalType": "uint256",
          "name": "upgradeState1",
          "type": "uint256"
        },
        {
          "internalType": "uint256",
          "name": "upgradeState2",
          "type": "uint256"
        },
        {
          "internalType": "uint256",
          "name": "hatLevel",
          "type": "uint256"
        }
      ],
      "stateMutability": "view",
      "type": "function"
    },
    {
      "inputs": [
        {
          "internalType": "uint256",
          "name": "",
          "type": "uint256"
        }
      ],
      "name": "playerIds",
      "outputs": [
        {
          "internalType": "address",
          "name": "",
          "type": "address"
        }
      ],
      "stateMutability": "view",
      "type": "function"
    },
    {
      "inputs": [
        {
          "internalType": "uint256",
          "name": "_location",
          "type": "uint256"
        }
      ],
      "name": "refreshPlanet",
      "outputs": [],
      "stateMutability": "nonpayable",
      "type": "function"
    },
    {
      "inputs": [
        {
          "internalType": "uint256",
          "name": "_location",
          "type": "uint256"
        },
        {
          "internalType": "address",
          "name": "_player",
          "type": "address"
        }
      ],
      "name": "undelegatePlanet",
      "outputs": [],
      "stateMutability": "nonpayable",
      "type": "function"
    },
    {
      "inputs": [],
      "name": "unpause",
      "outputs": [],
      "stateMutability": "nonpayable",
      "type": "function"
    },
    {
      "inputs": [
        {
          "internalType": "uint256",
          "name": "_location",
          "type": "uint256"
        },
        {
          "internalType": "uint256",
          "name": "_branch",
          "type": "uint256"
        }
      ],
      "name": "upgradePlanet",
      "outputs": [
        {
          "internalType": "uint256",
          "name": "",
          "type": "uint256"
        },
        {
          "internalType": "uint256",
          "name": "",
          "type": "uint256"
        }
      ],
      "stateMutability": "nonpayable",
      "type": "function"
    },
    {
      "inputs": [
        {
          "internalType": "uint256",
          "name": "",
          "type": "uint256"
        },
        {
          "internalType": "uint256",
          "name": "",
          "type": "uint256"
        }
      ],
      "name": "upgrades",
      "outputs": [
        {
          "internalType": "uint256",
          "name": "popCapMultiplier",
          "type": "uint256"
        },
        {
          "internalType": "uint256",
          "name": "popGroMultiplier",
          "type": "uint256"
        },
        {
          "internalType": "uint256",
          "name": "rangeMultiplier",
          "type": "uint256"
        },
        {
          "internalType": "uint256",
          "name": "speedMultiplier",
          "type": "uint256"
        },
        {
          "internalType": "uint256",
          "name": "defMultiplier",
          "type": "uint256"
        }
      ],
      "stateMutability": "view",
      "type": "function"
    },
    {
      "inputs": [],
      "name": "withdraw",
      "outputs": [],
      "stateMutability": "nonpayable",
      "type": "function"
    },
    {
      "inputs": [],
      "name": "worldRadius",
      "outputs": [
        {
          "internalType": "uint256",
          "name": "",
          "type": "uint256"
        }
      ],
      "stateMutability": "view",
      "type": "function"
    }
  ],
  "bytecode": "0x608060405234801561001057600080fd5b5061443b806100206000396000f3fe6080604052600436106103395760003560e060020a9004806378d4ce95116101af578063b5549e64116100fb578063d6127ab411610099578063e4bbb5a811610073578063e4bbb5a8146109aa578063f6e46b60146109ca578063fc6f9468146109df578063fe80bb12146109f457610339565b8063d6127ab414610948578063dacb613514610968578063de2edb911461099557610339565b8063c68b8126116100d5578063c68b8126146108ad578063c8d503ea146108c2578063c9359491146108e2578063ccf738e91461091357610339565b8063b5549e6414610836578063bb4908f21461086b578063c012b1121461088057610339565b80639184f0b611610168578063aaca42e911610142578063aaca42e9146107b1578063ab230321146107d1578063ad48909114610801578063ae3f86191461082157610339565b80639184f0b614610751578063975de613146107715780639fd4d4d41461079e57610339565b806378d4ce95146106b25780638151e1d2146106d25780638456cb59146106f25780638a05b329146107075780638af9d5621461071c5780638f2839701461073157610339565b80633ccfd60b11610289578063695bd00c1161022757806373a853811161020157806373a853811461062657806374b991061461065457806376af38b41461066957806378d1742b1461069d57610339565b8063695bd00c146105c25780636c7ffeec146105e45780636df0a9061461061157610339565b806340a727881161026357806340a727881461053e5780634eb0e9591461056b57806352f666a7146105805780635c975abb146105ad57610339565b80633ccfd60b146104f45780633f324cf3146105095780633f4ba83a1461052957610339565b80630ad98d41116102f65780631e4abc3a116102d05780631e4abc3a1461041a5780631f2836b71461047c578063221f77641461049c57806326c1e750146104bc57610339565b80630ad98d411461041a5780630af807781461043c57806310d4abf21461045c57610339565b8063039e4e741461033e57806304d74a391461036057806305b86be5146103965780630767751a146103b857806308ae8614146103d857806308d2e95a146103f8575b600080fd5b34801561034a57600080fd5b5061035e610359366004613406565b610a09565b005b34801561036c57600080fd5b5061038061037b36600461348c565b610a44565b60405161038d91906138a2565b60405180910390f35b3480156103a257600080fd5b506103ab610bf4565b60405161038d9190613ae3565b3480156103c457600080fd5b5061035e6103d3366004613406565b610c4c565b3480156103e457600080fd5b5061035e6103f3366004613436565b610c7e565b34801561040457600080fd5b5061040d610ece565b60405161038d91906137e6565b34801561042657600080fd5b5061042f611066565b60405161038d91906137ca565b34801561044857600080fd5b5061042f610457366004613358565b61106b565b34801561046857600080fd5b5061042f610477366004613406565b61136f565b34801561048857600080fd5b5061042f610497366004613406565b61138d565b3480156104a857600080fd5b5061042f6104b7366004613406565b61139a565b3480156104c857600080fd5b506104dc6104d7366004613406565b6113a7565b60405161038d9c9b9a99989796959493929190613665565b34801561050057600080fd5b5061035e611414565b34801561051557600080fd5b5061035e610524366004613406565b611471565b34801561053557600080fd5b5061035e611609565b34801561054a57600080fd5b5061055e61055936600461348c565b611682565b60405161038d91906136eb565b34801561057757600080fd5b5061042f611728565b34801561058c57600080fd5b506105a061059b366004613436565b61172e565b60405161038d9190613b4a565b3480156105b957600080fd5b506105a06117dd565b3480156105ce57600080fd5b506105d76117ed565b60405161038d919061374b565b3480156105f057600080fd5b506106046105ff36600461348c565b61189d565b60405161038d91906136d8565b34801561061d57600080fd5b5061042f611948565b34801561063257600080fd5b5061064661064136600461348c565b61194d565b60405161038d929190614301565b34801561066057600080fd5b5061042f611a79565b34801561067557600080fd5b50610689610684366004613406565b611a7e565b60405161038d989796959493929190614296565b3480156106a957600080fd5b506103ab611acb565b3480156106be57600080fd5b5061042f6106cd3660046132b8565b611b21565b3480156106de57600080fd5b5061035e6106ed366004613406565b611eae565b3480156106fe57600080fd5b5061035e611ee0565b34801561071357600080fd5b5061042f611f60565b34801561072857600080fd5b506105a0611f66565b34801561073d57600080fd5b5061035e61074c366004613252565b611f88565b34801561075d57600080fd5b506105a061076c366004613252565b612000565b34801561077d57600080fd5b5061079161078c36600461348c565b612015565b60405161038d919061396b565b61035e6107ac366004613406565b61218e565b3480156107bd57600080fd5b506103ab6107cc36600461348c565b61229c565b3480156107dd57600080fd5b506107f16107ec36600461348c565b612327565b60405161038d94939291906142d5565b34801561080d57600080fd5b5061042f61081c366004613406565b61236d565b34801561082d57600080fd5b506103ab61237a565b34801561084257600080fd5b50610856610851366004613406565b6123d0565b60405161038d99989796959493929190613bca565b34801561087757600080fd5b5061042f6124b0565b34801561088c57600080fd5b506108a061089b366004613406565b6124b6565b60405161038d9190613638565b3480156108b957600080fd5b5061042f6124dd565b3480156108ce57600080fd5b506105a06108dd366004613406565b6124e3565b3480156108ee57600080fd5b506109026108fd36600461348c565b612506565b60405161038d959493929190613b27565b34801561091f57600080fd5b5061093361092e366004613406565b612548565b60405161038d99989796959493929190613b55565b34801561095457600080fd5b5061035e610963366004613436565b612599565b34801561097457600080fd5b50610988610983366004613406565b6126f9565b60405161038d91906137d3565b3480156109a157600080fd5b5061042f6128df565b3480156109b657600080fd5b5061035e6109c536600461326e565b6128e5565b3480156109d657600080fd5b5061042f612bf8565b3480156109eb57600080fd5b506108a0612bfd565b348015610a0057600080fd5b5061042f612c0c565b603354600160a060020a03163314610a3f5760405160e560020a62461bcd028152600401610a3690613cfa565b60405180910390fd5b607755565b606082820367ffffffffffffffff81118015610a5f57600080fd5b50604051908082528060200260200182016040528015610a9957816020015b610a86612ed8565b815260200190600190039081610a7e5790505b509050825b82811015610bed57607d600060788381548110610ab757fe5b90600052602060002001548152602001908152602001600020604051806101400160405290816000820160009054906101000a900460ff161515151581526020016001820154815260200160028201548152602001600382015481526020016004820160009054906101000a900460ff166002811115610b3357fe5b6002811115610b3e57fe5b81526020016005820154815260200160068201548152602001600782015481526020016008820154815260200160098201805480602002602001604051908101604052809291908181526020018280548015610bc357602002820191906000526020600020905b8154600160a060020a03168152600190910190602001808311610ba5575b5050505050815250508285830381518110610bda57fe5b6020908102919091010152600101610a9e565b5092915050565b60606035805480602002602001604051908101604052809291908181526020018280548015610c4257602002820191906000526020600020905b815481526020019060010190808311610c2e575b5050505050905090565b603354600160a060020a03163314610c795760405160e560020a62461bcd028152600401610a3690613cfa565b607655565b60345460a060020a900460ff1615610cab5760405160e560020a62461bcd028152600401610a36906140a9565b6075544210610ccf5760405160e560020a62461bcd028152600401610a3690613c1e565b6000828152607d602052604090205460ff161515600114610d055760405160e560020a62461bcd028152600401610a3690613cc3565b610d0e82611471565b6000828152607c6020526040902054600160a060020a03163314610d475760405160e560020a62461bcd028152600401610a3690613dfc565b610d51828261172e565b610d705760405160e560020a62461bcd028152600401610a3690614117565b60005b6000838152607d6020526040902060090154811015610ec9576000838152607d60205260409020600901805482908110610da957fe5b600091825260209091200154600160a060020a0383811691161415610ec1576000838152607d6020526040902060090180546000198101908110610de957fe5b6000918252602080832090910154858352607d90915260409091206009018054600160a060020a039092169183908110610e1f57fe5b60009182526020808320919091018054600160a060020a031916600160a060020a039490941693909317909255848152607d90915260409020600901805480610e6457fe5b60008281526020902081016000199081018054600160a060020a03191690550190556040517f28c5d715b75d0b08d684e1ae26b95d8ff180d05ae50321619ee116e9b88164ed90610eb8908590859061427f565b60405180910390a15b600101610d73565b505050565b603554606090819067ffffffffffffffff81118015610eec57600080fd5b50604051908082528060200260200182016040528015610f2657816020015b610f13612f38565b815260200190600190039081610f0b5790505b50905060005b6035548110156110605760388181548110610f4357fe5b600091825260209182902060408051600993909302909101805460026001821615610100026000190190911604601f81018590049094028301610140908101909252610120830184815292939092849290918491840182828015610fe85780601f10610fbd57610100808354040283529160200191610fe8565b820191906000526020600020905b815481529060010190602001808311610fcb57829003601f168201915b505050505081526020016001820154815260200160028201548152602001600382015481526020016004820154815260200160058201548152602001600682015481526020016007820154815260200160088201548152505082828151811061104d57fe5b6020908102919091010152600101610f2c565b50905090565b600881565b60345460009060a060020a900460ff161561109b5760405160e560020a62461bcd028152600401610a36906140a9565b60755442106110bf5760405160e560020a62461bcd028152600401610a3690613c1e565b8151602083015160408401516060850151608086015160a087015160c08801516034547501000000000000000000000000000000000000000000900460ff166111e45761110a612f84565b6040518060a0016040528089815260200188815260200187815260200186815260200185815250905073__Verifier______________________________63275abc628e8e8e856040518563ffffffff1660e060020a0281526004016111739493929190613a92565b60206040518083038186803b15801561118b57600080fd5b505af415801561119f573d6000803e3d6000fd5b505050506040513d601f19601f820116820180604052508101906111c391906133ea565b6111e25760405160e560020a62461bcd028152600401610a3690613fde565b505b607a548411156112095760405160e560020a62461bcd028152600401610a36906141bc565b6000868152607d602052604090205460ff166112305761122b86866000612c11565b61126a565b61123986611471565b6000868152607f602052604090205460071161126a5760405160e560020a62461bcd028152600401610a3690613c8c565b61127387611471565b607b546040517f37294be800000000000000000000000000000000000000000000000000000000815273__DarkForestPlanet______________________916337294be8916112da918b918b91899189918991607c90607d90607f90608090600401614337565b60006040518083038186803b1580156112f257600080fd5b505af4158015611306573d6000803e3d6000fd5b5050607b805460010190555061131c9050612e1d565b7f73589d8f04c4286010ba8cbf687f804de4f668cb96b2d8c73f310ceb90a48fc06001607b540360405161135091906137ca565b60405180910390a15050607b54600019019a9950505050505050505050565b6036818154811061137c57fe5b600091825260209091200154905081565b6037818154811061137c57fe5b6035818154811061137c57fe5b607c60205260009081526040902080546001820154600283015460038401546004850154600586015460068701546007880154600889015460098a0154600a8b0154600b909b0154600160a060020a03909a169a98999798969795969495939460ff90931693919290918c565b603354600160a060020a031633146114415760405160e560020a62461bcd028152600401610a3690613cfa565b6040513390303180156108fc02916000818181858888f1935050505015801561146e573d6000803e3d6000fd5b50565b6034546040517f3af32abf000000000000000000000000000000000000000000000000000000008152600160a060020a0390911690633af32abf906114ba903390600401613638565b60206040518083038186803b1580156114d257600080fd5b505afa1580156114e6573d6000803e3d6000fd5b505050506040513d601f19601f8201168201806040525081019061150a91906133ea565b6115295760405160e560020a62461bcd028152600401610a3690613e33565b60345460a060020a900460ff16156115565760405160e560020a62461bcd028152600401610a36906140a9565b607554421061157a5760405160e560020a62461bcd028152600401610a3690613c1e565b6040517f180287b700000000000000000000000000000000000000000000000000000000815273__DarkForestPlanet______________________9063180287b7906115d6908490607c90607d90607f90608090600401613b27565b60006040518083038186803b1580156115ee57600080fd5b505af4158015611602573d6000803e3d6000fd5b5050505050565b603354600160a060020a031633146116365760405160e560020a62461bcd028152600401610a3690613cfa565b60345460a060020a900460ff166116625760405160e560020a62461bcd028152600401610a3690614185565b6034805474ff000000000000000000000000000000000000000019169055565b60608083830367ffffffffffffffff8111801561169e57600080fd5b506040519080825280602002602001820160405280156116d257816020015b60608152602001906001900390816116bd5790505b509050835b83811015611720576116ff607882815481106116ef57fe5b90600052602060002001546126f9565b828683038151811061170d57fe5b60209081029190910101526001016116d7565b509392505050565b607a5481565b6040517f7d5c40c400000000000000000000000000000000000000000000000000000000815260009073__DarkForestUtils_______________________90637d5c40c49061178690607d9087908790600401613bab565b60206040518083038186803b15801561179e57600080fd5b505af41580156117b2573d6000803e3d6000fd5b505050506040513d601f19601f820116820180604052508101906117d691906133ea565b9392505050565b60345460a060020a900460ff1681565b6117f5612fa2565b6040805160608101909152603960036000835b8282101561189457604080516080810190915260148302850160046000835b82821015611881578382600502016040518060a00160405290816000820154815260200160018201548152602001600282015481526020016003820154815260200160048201548152505081526020019060010190611827565b5050505081526020019060010190611808565b50505050905090565b606082820367ffffffffffffffff811180156118b857600080fd5b506040519080825280602002602001820160405280156118e2578160200160208202803683370190505b509050825b82811015610bed57607981815481106118fc57fe5b9060005260206000200160009054906101000a9004600160a060020a0316828583038151811061192857fe5b600160a060020a03909216602092830291909101909101526001016118e7565b601181565b603454600090819060a060020a900460ff161561197f5760405160e560020a62461bcd028152600401610a36906140a9565b60755442106119a35760405160e560020a62461bcd028152600401610a3690613c1e565b6119ac84611471565b6040517fc25c089400000000000000000000000000000000000000000000000000000000815273__DarkForestPlanet______________________9063c25c089490611a0a9087908790607c90607d9060389060399060040161430f565b60006040518083038186803b158015611a2257600080fd5b505af4158015611a36573d6000803e3d6000fd5b505050507f1c3559377dd1e586346f593aa9785e8eea8298f2d2ce1c2ef50428563d8ba84c84604051611a6991906137ca565b60405180910390a1509192909150565b600481565b608060205260009081526040902080546001820154600283015460038401546004850154600586015460068701546007909701549596600160a060020a0390951695939492939192909188565b60606036805480602002602001604051908101604052809291908181526020018280548015610c425760200282019190600052602060002090815481526020019060010190808311610c2e575050505050905090565b6034546040517f3af32abf000000000000000000000000000000000000000000000000000000008152600091600160a060020a031690633af32abf90611b6b903390600401613638565b60206040518083038186803b158015611b8357600080fd5b505afa158015611b97573d6000803e3d6000fd5b505050506040513d601f19601f82011682018060405250810190611bbb91906133ea565b611bda5760405160e560020a62461bcd028152600401610a3690613e33565b60345460a060020a900460ff1615611c075760405160e560020a62461bcd028152600401610a36906140a9565b6075544210611c2b5760405160e560020a62461bcd028152600401610a3690613c1e565b6034547501000000000000000000000000000000000000000000900460ff16611d13576040517f8eff895400000000000000000000000000000000000000000000000000000000815273__Verifier______________________________90638eff895490611ca4908890889088908890600401613a35565b60206040518083038186803b158015611cbc57600080fd5b505af4158015611cd0573d6000803e3d6000fd5b505050506040513d601f19601f82011682018060405250810190611cf491906133ea565b611d135760405160e560020a62461bcd028152600401610a3690613dc5565b8151602080840151604080860151336000908152607e90945292205490919060ff1615611d555760405160e560020a62461bcd028152600401610a3690613d31565b6000838152607d602052604090205460ff1615611d875760405160e560020a62461bcd028152600401610a3690613f4a565b607a54811115611dac5760405160e560020a62461bcd028152600401610a3690613eed565b600f8210611dcf5760405160e560020a62461bcd028152600401610a3690613e6a565b336000818152607e60205260408120805460ff1916600190811790915560798054808301825592527f957bbdc7fad0dec56e7c96af4a3ab63aa9daf934a52ffce891945b7fb622d7919091018054600160a060020a031916909217909155611e3a9084908490612c11565b6000838152607c602052604090208054600160a060020a0319163317815561c350600490910155611e69612e1d565b7f5765df5ce7cf4175ef997923b4936159dcf3cea059434dab4643214d690a2b953384604051611e9a92919061364c565b60405180910390a150909695505050505050565b603354600160a060020a03163314611edb5760405160e560020a62461bcd028152600401610a3690613cfa565b607555565b603354600160a060020a03163314611f0d5760405160e560020a62461bcd028152600401610a3690613cfa565b60345460a060020a900460ff1615611f3a5760405160e560020a62461bcd028152600401610a36906141f1565b6034805474ff0000000000000000000000000000000000000000191660a060020a179055565b60795490565b6034547501000000000000000000000000000000000000000000900460ff1681565b603354600160a060020a03163314611fb55760405160e560020a62461bcd028152600401610a3690613cfa565b600160a060020a038116611fde5760405160e560020a62461bcd028152600401610a3690613c55565b60338054600160a060020a031916600160a060020a0392909216919091179055565b607e6020526000908152604090205460ff1681565b606082820367ffffffffffffffff8111801561203057600080fd5b5060405190808252806020026020018201604052801561206a57816020015b612057612fcf565b81526020019060019003908161204f5790505b509050825b82811015610bed57607c60006078838154811061208857fe5b90600052602060002001548152602001908152602001600020604051806101800160405290816000820160009054906101000a9004600160a060020a0316600160a060020a0316600160a060020a031681526020016001820154815260200160028201548152602001600382015481526020016004820154815260200160058201548152602001600682015481526020016007820160009054906101000a900460ff16600181111561213657fe5b600181111561214157fe5b81526020016008820154815260200160098201548152602001600a8201548152602001600b82015481525050828583038151811061217b57fe5b602090810291909101015260010161206f565b6000818152607d602052604090205460ff1615156001146121c45760405160e560020a62461bcd028152600401610a3690613cc3565b6121cd81611471565b6000818152607c6020526040902054600160a060020a031633146122065760405160e560020a62461bcd028152600401610a3690613d68565b6000818152607d602052604090206008015460020a670de0b6b3a764000002348111156122485760405160e560020a62461bcd028152600401610a369061414e565b6000828152607d60205260409081902060080180546001019055517f444d0a208ac492e147b2e0e5ffeeb6e6be2c122d95f3da8f45e26868785c84eb906122909084906137ca565b60405180910390a15050565b606082820367ffffffffffffffff811180156122b757600080fd5b506040519080825280602002602001820160405280156122e1578160200160208202803683370190505b509050825b82811015610bed57607881815481106122fb57fe5b9060005260206000200154828583038151811061231457fe5b60209081029190910101526001016122e6565b607f602052816000526040600020818154811061234057fe5b6000918252602090912060049091020180546001820154600283015460039093015491945060ff16925084565b6078818154811061137c57fe5b60606037805480602002602001604051908101604052809291908181526020018280548015610c425760200282019190600052602060002090815481526020019060010190808311610c2e575050505050905090565b603881815481106123dd57fe5b60009182526020918290206009919091020180546040805160026001841615610100026000190190931692909204601f8101859004850283018501909152808252919350918391908301828280156124765780601f1061244b57610100808354040283529160200191612476565b820191906000526020600020905b81548152906001019060200180831161245957829003601f168201915b5050505050908060010154908060020154908060030154908060040154908060050154908060060154908060070154908060080154905089565b607b5481565b607981815481106124c357fe5b600091825260209091200154600160a060020a0316905081565b60785490565b7dc19139cb84c680a6e14116da06056174a0cfa121e6e5c2450f87d64fc0001190565b6039826003811061251357fe5b60140201816004811061252257fe5b600502018054600182015460028301546003840154600490940154929550909350919085565b607d6020526000908152604090208054600182015460028301546003840154600485015460058601546006870154600788015460089098015460ff9788169896979596949590931693919290919089565b60345460a060020a900460ff16156125c65760405160e560020a62461bcd028152600401610a36906140a9565b60755442106125ea5760405160e560020a62461bcd028152600401610a3690613c1e565b6000828152607d602052604090205460ff1615156001146126205760405160e560020a62461bcd028152600401610a3690613cc3565b61262982611471565b6000828152607c6020526040902054600160a060020a031633146126625760405160e560020a62461bcd028152600401610a3690613dfc565b61266c828261172e565b1561268c5760405160e560020a62461bcd028152600401610a36906140e0565b6000828152607d60209081526040808320600901805460018101825590845291909220018054600160a060020a031916600160a060020a038416179055517f843a291790c6bf4cb530efd7a7338dbef8bb1c23d50f1fbf31e0e784a45315d390612290908490849061427f565b60606000805b6000848152607f6020526040902054811015612763576000848152607f6020526040812080548390811061272f57fe5b600091825260209091206001600490920201015460ff16801561274e57fe5b141561275b576001820191505b6001016126ff565b508067ffffffffffffffff8111801561277b57600080fd5b506040519080825280602002602001820160405280156127b557816020015b6127a2613044565b81526020019060019003908161279a5790505b5091506000805b6000858152607f60205260409020548110156128d7576000858152607f602052604081208054839081106127ec57fe5b600091825260209091206001600490920201015460ff16801561280b57fe5b14156128cf576000858152607f60205260408120805460809291908490811061283057fe5b60009182526020808320600492830201548452838101949094526040928301909120825161010081018452815481526001820154600160a060020a031694810194909452600281015492840192909252600382015460608401528101546080830152600581015460a0830152600681015460c08301526007015460e082015284518590849081106128bd57fe5b60209081029190910101526001909101905b6001016127bc565b505050919050565b61400081565b600054610100900460ff16806128fe57506128fe612ed2565b8061290c575060005460ff16155b61292b5760405160e560020a62461bcd028152600401610a3690614015565b600054610100900460ff16158015612956576000805460ff1961ff0019909116610100171660011790555b60338054600160a060020a03808716600160a060020a0319928316179092556034805485151575010000000000000000000000000000000000000000000275ffff00000000000000000000000000000000000000001994881691909316179290921617905563652d3ec06075556032607655600c607755604080516101008101825263010000008152623fffd06020820152620fffc4918101919091526203ffc1606082015261ffc06080820152613fc060a0820152610fc060c08201526103c060e0820152612a2a906035906008613092565b506040517f5dfd086d00000000000000000000000000000000000000000000000000000000815273__DarkForestInitialize__________________90635dfd086d90612a7c906038906004016137ca565b60006040518083038186803b158015612a9457600080fd5b505af4158015612aa8573d6000803e3d6000fd5b50506040517fe771ed6b00000000000000000000000000000000000000000000000000000000815273__DarkForestInitialize__________________925063e771ed6b9150612afd906039906004016137ca565b60006040518083038186803b158015612b1557600080fd5b505af4158015612b29573d6000803e3d6000fd5b50506040805161010081018252600080825260208201819052918101829052606081018290526080810182905260a0810182905260c0810182905260e0810191909152612b7c92506037915060086130e5565b5060005b603554811015612bd757603661400060358381548110612b9c57fe5b9060005260206000200154630100000081612bb357fe5b83546001818101865560009586526020909520929091049290920291015501612b80565b50612be0612e1d565b8015612bf2576000805461ff00191690555b50505050565b606481565b603354600160a060020a031681565b600f81565b612c1a836124e3565b612c395760405160e560020a62461bcd028152600401610a3690614072565b60008073__DarkForestUtils_______________________6339818ecc8686600f60116008806004603560386040518a63ffffffff1660e060020a028152600401612c8c9998979695949392919061437c565b604080518083038186803b158015612ca357600080fd5b505af4158015612cb7573d6000803e3d6000fd5b505050506040513d601f19601f82011682018060405250810190612cdb9190613465565b915091508215612d06578115612d065760405160e560020a62461bcd028152600401610a3690613f81565b6000858152607c60209081526040808320607d9092529091206038805473__DarkForestPlanet______________________93639414ee04939092909187908110612d4d57fe5b9060005260206000209060090201886064600f6011898b8f6040518b63ffffffff1660e060020a028152600401612d8d9a99989796959493929190614228565b60006040518083038186803b158015612da557600080fd5b505af4158015612db9573d6000803e3d6000fd5b505060788054600181810183556000929092527f8dc6fb69531d98d70dc0420e638d2dfd04e09e1ec783ede9aac77da9c5a0dac40188905560378054919350915084908110612e0457fe5b6000918252602090912001805490910190555050505050565b6079546076546077546040517fc30403df00000000000000000000000000000000000000000000000000000000815273__DarkForestUtils_______________________9363c30403df93612e7d93603793603693929190600401613b27565b60206040518083038186803b158015612e9557600080fd5b505af4158015612ea9573d6000803e3d6000fd5b505050506040513d601f19601f82011682018060405250810190612ecd919061341e565b607a55565b303b1590565b60405180610140016040528060001515815260200160008152602001600081526020016000815260200160006002811115612f0f57fe5b815260200160008152602001600081526020016000815260200160008152602001606081525090565b6040518061012001604052806060815260200160008152602001600081526020016000815260200160008152602001600081526020016000815260200160008152602001600081525090565b6040518060a001604052806005906020820280368337509192915050565b60405180606001604052806003905b612fb9613125565b815260200190600190039081612fb15790505090565b6040518061018001604052806000600160a060020a031681526020016000815260200160008152602001600081526020016000815260200160008152602001600081526020016000600181111561302257fe5b8152602001600081526020016000815260200160008152602001600081525090565b604051806101000160405280600081526020016000600160a060020a031681526020016000815260200160008152602001600081526020016000815260200160008152602001600081525090565b8280548282559060005260206000209081019282156130d5579160200282015b828111156130d5578251829063ffffffff169055916020019190600101906130b2565b506130e1929150613152565b5090565b8280548282559060005260206000209081019282156130d5579160200282015b828111156130d5578251829060ff16905591602001919060010190613105565b60405180608001604052806004905b61313c613167565b8152602001906001900390816131345790505090565b5b808211156130e15760008155600101613153565b6040518060a0016040528060008152602001600081526020016000815260200160008152602001600081525090565b600082601f8301126131a6578081fd5b60406131b1816143bb565b91508183856080860111156131c557600080fd5b60005b60028110156131ef576131db87836131f9565b8352602090920191908301906001016131c8565b5050505092915050565b600082601f830112613209578081fd5b61321360406143bb565b905080828460408501111561322757600080fd5b60005b600281101561324957813583526020928301929091019060010161322a565b50505092915050565b600060208284031215613263578081fd5b81356117d6816143e2565b600080600060608486031215613282578182fd5b833561328d816143e2565b9250602084013561329d816143e2565b915060408401356132ad816143f7565b809150509250925092565b6000806000806101608086880312156132cf578182fd5b6132d987876131f9565b94506132e88760408801613196565b93506132f78760c088016131f9565b92508661011f870112613308578182fd5b61331260606143bb565b80610100880189848a011115613326578485fd5b8493505b600384101561334a5780358352600193909301926020928301920161332a565b509598949750929550505050565b6000806000806101e080868803121561336f578485fd5b61337987876131f9565b94506133888760408801613196565b93506133978760c088016131f9565b92508661011f8701126133a8578182fd5b6133b260e06143bb565b80610100880189848a0111156133c6578485fd5b8493505b600784101561334a578035835260019390930192602092830192016133ca565b6000602082840312156133fb578081fd5b81516117d6816143f7565b600060208284031215613417578081fd5b5035919050565b60006020828403121561342f578081fd5b5051919050565b60008060408385031215613448578182fd5b82359150602083013561345a816143e2565b809150509250929050565b60008060408385031215613477578182fd5b8251915060208301516002811061345a578182fd5b6000806040838503121561349e578182fd5b50508035926020909101359150565b600160a060020a03169052565b6000815180845260208085019450808401835b838110156134f2578151600160a060020a0316875295820195908201906001016134cd565b509495945050505050565b8060005b6002811015612bf2576135158483516135ac565b6040939093019260209190910190600101613501565b6000815180845260208085019450808401835b838110156134f25781518051885283810151600160a060020a03168489015260408082015190890152606080820151908901526080808201519089015260a0808201519089015260c0808201519089015260e09081015190880152610100909601959082019060010161353e565b8060005b6002811015612bf25781518452602093840193909101906001016135b0565b15159052565b600281106135df57fe5b9052565b600381106135df57fe5b60008151808452815b81811015613612576020818501810151868301820152016135f6565b818111156136235782602083870101525b50601f01601f19169290920160200192915050565b600160a060020a0391909116815260200190565b600160a060020a03929092168252602082015260400190565b600061018082019050600160a060020a038e1682528c60208301528b60408301528a60608301528960808301528860a08301528760c08301526136ab60e08301886135d5565b856101008301528461012083015283610140830152826101608301529d9c50505050505050505050505050565b6000602082526117d660208301846134ba565b6000602080830181845280855180835260408601915060408482028701019250838701855b8281101561373e57603f1988860301845261372c85835161352b565b94509285019290850190600101613710565b5092979650505050505050565b610780810181836000805b60038110156131ef57825184835b60048110156137b057825180518352602080820151818501526040808301519085015260608083015190850152608091820151918401919091529092019160a090910190600101613764565b505050610280939093019260209290920191600101613756565b90815260200190565b6000602082526117d6602083018461352b565b60208082528251828201819052600091906040908185019080840286018301878501865b8381101561389457603f1989840301855281516101208151818652613831828701826135ed565b838b0151878c0152898401518a880152606080850151908801526080808501519088015260a0808501519088015260c0808501519088015260e080850151908801526101009384015193909601929092525050938601939086019060010161380a565b509098975050505050505050565b60208082528251828201819052600091906040908185019080840286018301878501865b8381101561389457603f1989840301855281516101406138e78583516135cf565b81890151858a0152878201518886015260608083015190860152608080830151613913828801826135e3565b505060a0828101519086015260c0808301519086015260e08083015190860152610100808301519086015261012091820151918501819052613957818601836134ba565b9689019694505050908601906001016138c6565b602080825282518282018190526000919060409081850190868401855b82811015613a2857815161399d8582516134ad565b80870151858801528581015186860152606080820151908601526080808201519086015260a0808201519086015260c0808201519086015260e0808201516139e7828801826135d5565b505061010081810151908601526101208082015190860152610140808201519086015261016090810151908501526101809093019290850190600101613988565b5091979650505050505050565b6101608101613a4482876135ac565b613a5160408301866134fd565b613a5e60c08301856135ac565b61010082018360005b6003811015613a86578151835260209283019290910190600101613a67565b50505095945050505050565b6101a08101613aa182876135ac565b613aae60408301866134fd565b613abb60c08301856135ac565b61010082018360005b6005811015613a86578151835260209283019290910190600101613ac4565b6020808252825182820181905260009190848201906040850190845b81811015613b1b57835183529284019291840191600101613aff565b50909695505050505050565b948552602085019390935260408401919091526060830152608082015260a00190565b901515815260200190565b6000610120820190508a1515825289602083015288604083015287606083015260038710613b7f57fe5b608082019690965260a081019490945260c084019290925260e083015261010090910152949350505050565b9283526020830191909152600160a060020a0316604082015260600190565b6000610120808352613bde8184018d6135ed565b602084019b909b52505060408101979097526060870195909552608086019390935260a085019190915260c084015260e083015261010090910152919050565b6020808252600f908201527f47616d65206861766520656e6465640000000000000000000000000000000000604082015260600190565b60208082526016908201527f6e65774f776e65722063616e6e6f742062652030783000000000000000000000604082015260600190565b60208082526016908201527f506c616e657420697320726174652d6c696d6974656400000000000000000000604082015260600190565b60208082526019908201527f506c616e6574206973206e6f7420696e697469616c697a656400000000000000604082015260600190565b6020808252601b908201527f53656e646572206973206e6f7420612067616d65206d61737465720000000000604082015260600190565b6020808252601d908201527f506c6179657220697320616c726561647920696e697469616c697a6564000000604082015260600190565b60208082526021908201527f4f6e6c79206f776e65722063616e206275792068617420666f7220706c616e6560408201527f7400000000000000000000000000000000000000000000000000000000000000606082015260800190565b60208082526017908201527f4661696c656420696e69742070726f6f6620636865636b000000000000000000604082015260600190565b6020808252601e908201527f4f6e6c79206f776e65722063616e2064656c656761746520706c616e65740000604082015260600190565b60208082526019908201527f506c61796572206973206e6f742077686974656c697374656400000000000000604082015260600190565b60208082526047908201527f496e6974206e6f7420616c6c6f77656420696e207065726c696e2076616c756560408201527f2067726561746572207468616e206f7220657175616c20746f2074686520746860608201527f726573686f6c6400000000000000000000000000000000000000000000000000608082015260a00190565b60208082526033908201527f496e69742072616469757320697320626967676572207468616e20746865206360408201527f757272656e7420776f726c642072616469757300000000000000000000000000606082015260800190565b6020808252601d908201527f506c616e657420697320616c726561647920696e697469616c697a6564000000604082015260600190565b60208082526025908201527f43616e206f6e6c7920696e697469616c697a65206f6e20706c616e6574206c6560408201527f76656c2030000000000000000000000000000000000000000000000000000000606082015260800190565b60208082526017908201527f4661696c6564206d6f76652070726f6f6620636865636b000000000000000000604082015260600190565b6020808252602e908201527f436f6e747261637420696e7374616e63652068617320616c726561647920626560408201527f656e20696e697469616c697a6564000000000000000000000000000000000000606082015260800190565b6020808252601b908201527f4e6f7420612076616c696420706c616e6574206c6f636174696f6e0000000000604082015260600190565b6020808252600e908201527f47616d6520697320706175736564000000000000000000000000000000000000604082015260600190565b60208082526018908201527f506c616e657420616c72656164792064656c6567617465640000000000000000604082015260600190565b60208082526017908201527f506c616e6574206973206e6f742064656c656761746564000000000000000000604082015260600190565b60208082526017908201527f496e73756666696369656e742076616c75652073656e74000000000000000000604082015260600190565b60208082526018908201527f47616d6520697320616c726561647920756e7061757365640000000000000000604082015260600190565b6020808252818101527f417474656d7074696e6720746f206d6f7665206f7574206f6620626f756e6473604082015260600190565b60208082526016908201527f47616d6520697320616c72656164792070617573656400000000000000000000604082015260600190565b6000610140820190508b82528a60208301528960408301528860608301528760808301528660a08301528560c083015261426560e08301866135d5565b610100820193909352610120015298975050505050505050565b918252600160a060020a0316602082015260400190565b978852600160a060020a0396909616602088015260408701949094526060860192909252608085015260a084015260c083015260e08201526101000190565b84815260808101600185106142e657fe5b84602083015283604083015282606083015295945050505050565b918252602082015260400190565b958652602086019490945260408501929092526060840152608083015260a082015260c00190565b998a5260208a019890985260408901969096526060880194909452608087019290925260a086015260c085015260e08401526101008301526101208201526101400190565b988952602089019790975260408801959095526060870193909352608086019190915260a085015260c084015260e08301526101008201526101200190565b60405181810167ffffffffffffffff811182821017156143da57600080fd5b604052919050565b600160a060020a038116811461146e57600080fd5b801515811461146e57600080fdfea2646970667358221220f7ff4cd2b7283fca2805c941bd4b583d13b3066b009479682ae7762fe0db168264736f6c634300060c0033",
  "compiler": {
    "name": "solc",
    "version": "0.6.12+commit.27d51765.Emscripten.clang",
    "optimizer": {
      "enabled": true,
      "runs": 200
    },
    "evmVersion": "byzantium"
  }
}